:020000040800F2
:1000000010040020A90100089B0B0008E90A000861
:10001000990B0008B5020008350C0008000000002C
:100020000000000000000000000000009F0B00081E
:10003000E1020008000000009D0B0008A10B000871
:10004000C3010008C3010008C3010008C301000880
:10005000C3010008C3010008C3010008C301000870
:10006000C3010008C3010008C3010008C301000860
:10007000C3010008C3010008C3010008C301000850
:10008000C3010008C3010008C3010008000000000C
:10009000000000000000000000000000C301000894
:1000A000C3010008C3010008C3010008C301000820
:1000B000C3010008C3010008C3010008C301000810
:1000C000C3010008C3010008C3010008C301000800
:1000D000C3010008C3010008C301000800000000BC
:1000E000C3010008C3010008C301000800000000AC
:1000F000000000000000000000000000C301000834
:1001000000000000C3010008C3010008C30100088B
:1001100000000000000000000000000000000000DF
:10012000C3010008C3010008C3010008C30100089F
:10013000C3010008000000000000000000000000F3
:10014000000000000000000000000000C3010008E3
:10015000C3010008C3010008C3010008C30100086F
:10016000C3010008C30100080000000000000000F7
:10017000000000000000000000000000000000007F
:1001800000000000C30100080000000000000000A3
:10019000C3010008DFF80CD000F07AF800480047EF
:1001A0002510000810040020064880470648004734
:1001B000FEE7FEE7FEE7FEE7FEE7FEE7FEE7FEE717
:1001C000FEE7FEE7190C0008950100082DE9F05F35
:1001D0000546002092469B468846064681464024B6
:1001E0001BE0284641464746224600F041F8534668
:1001F0005A46C01A914110D311461846224600F0C3
:1002000028F82D1A67EB01084F46224601200021ED
:1002100000F01FF817EB00094E41201EA4F1010465
:10022000DFDC484631462A464346BDE8F09FD2B25D
:1002300001E000F8012B491EFBD270470022F6E7CF
:1002400010B513460A4604461946FFF7F0FF20464C
:1002500010BD202A04DB203A00FA02F1002070478A
:100260009140C2F1200320FA03F3194390407047F4
:10027000202A04DB203A21FA02F00021704721FAFB
:1002800002F3D040C2F12002914008431946704762
:10029000064C074D06E0E06840F0010394E80700D3
:1002A00098471034AC42F6D3FFF778FF6810000887
:1002B00088100008FEE7000010B500224FF6FF711D
:1002C000054800F0EBF8BDE81040002240F2FF7155
:1002D000024800F0E3B80000000C024000100240A9
:1002E0007047000070B5044600F0DEF80546601C5B
:1002F00002D004480078044400F0D6F8401BA04225
:10030000FAD370BD000000202DE9F84F00224FF015
:10031000010803254FF00F0E0B6808FA02F4234082
:10032000A34271D14E68012E05D0022E03D0112EAA
:1003300001D0122E15D18668570005FA07FC26EA6F
:100340000C06D1F80CC00CFA07FC4CEA060CC0F8FD
:1003500008C04668A6430C79C4F3001494403443A3
:100360004460C668570005FA07FC8C6826EA0C064C
:10037000BC403443C4604C68022C01D0122C13D111
:10038000D40800EB8404A346D4F8209054074FEA25
:10039000D46A0EFA0AF629EA06090E6906FA0AF67E
:1003A00046EA0906CBF8206004680E7924EA0C04BA
:1003B00006F00306BE40264306604C68E40056D5AE
:1003C0002E4C266846F480462660246822F00306F8
:1003D00004F4804400942A4C3444A446D4F80848D9
:1003E0009607370F0EFA07F6B443264EB04201D1F6
:1003F000002615E0244EB04201D1012610E0234E24
:10040000B04202D102260BE031E0214EB04201D1D0
:10041000032605E01F4EB04201D1042600E0072666
:10042000BE402643CCF808681B4E34684F689C4396
:10043000FF0300D51C433460174E361D34684F68E7
:100440009C43BF0300D51C433460134E0836346808
:100450004F689C43FF0200D51C4334600E4E0C369F
:1004600034684F689C43BF0200D51C433460521C63
:10047000102AFFF451AFBDE8F88F00004438024065
:100480000030014000000240000402400008024029
:10049000000C024000100240003C01400AB18161A2
:1004A00070470904FBE700000148806870470000BE
:1004B0000000002002488168027811448160704782
:1004C000000000200B4810B5016841F40071016084
:1004D000016841F480610160016841F4807101604C
:1004E000032000F061F8002000F006F800F024F886
:1004F000002010BD003C024070B50D4D04464FF485
:100500007A712878B1FBF0F00A490968B1FBF0F084
:1005100000F0D6FA48B9102C07D200222146501E0E
:1005200000F022F800206C6070BD012070BD00005A
:10053000000000200C0000200A4808B5016841F4C2
:1005400080410160006800F4804000900548001F71
:10055000016841F080510160006800F08050009017
:1005600008BD000044380240F0B40E4B1B680C4636
:10057000C3F30223C3F10705042D00D90425191D77
:10058000072901D2002300E0DB1E012606FA05F14F
:10059000491E214099409E40761E16403143F0BCD2
:1005A00000F049BB0CED00E0064900F007020868C6
:1005B0004FF6FF03184040EA0220034A1043086048
:1005C000704700000CED00E00000FA052DE9F0474F
:1005D0000E46050065D0DFF81481D8F80000F7B2A8
:1005E00000F00F00B04207D288F80070D8F8000081
:1005F00000F00F00B04254D128683D4C810712D55D
:10060000400703D5206840F4E050206028780007B8
:1006100003D5206840F4604020602068A96820F07D
:10062000F000084320602878C0072DD03049686862
:100630000839012812D0022813D0032811D00968E4
:10064000890700292DDA216821F003010143216087
:10065000FFF72AFF814641F2883A0EE009688903D4
:10066000EFE709688901ECE7FFF71EFFA0EB09013E
:10067000514502D90320BDE8F0872068696800F081
:100680000C00B0EB810FEFD1D8F80010404601F01C
:100690000F01B14207D90770006800F00F00B042A7
:1006A00001D00120E7E72878400705D52068E968F0
:1006B00020F4E050084320602878000706D5206821
:1006C000296920F4604040EAC100206000F018F879
:1006D0002168084AC1F30311515CC840064908600B
:1006E00006480068FFF708FF0020C4E7003C02400E
:1006F00008380240581000080C00002004000020B8
:10070000154810B5006810F00C02144813D01449B5
:10071000042A0FD0082A0ED10F4C241F2268236808
:1007200002F03F025B0207D52068C0F38810A0FBEF
:10073000010106E0084610BD2168C1F38811A1FB44
:1007400000010023FFF742FD2168C1F30141491C6C
:100750004900B0FBF1F010BD083802400024F4005D
:1007600040787D012DE9F84F04006ED02078DFF845
:100770003C93C007A9F104054AD009F104000168BF
:10078000C1F38101012908D00068C0F3810002286B
:100790000AD1D9F80000400206D52868800337D571
:1007A00060680028E1D033E06068B0F5803F10D089
:1007B000B0F5A02F286810D020F480302860286879
:1007C00020F4802028606068A8B1FFF76DFE06461F
:1007D0000DE0286840F48030F4E740F48020286081
:1007E000F7E700BFFFF760FE801B642873D8286816
:1007F0008003F7D50CE0FFF757FE064605E000BF83
:10080000FFF752FE801B6428F0D828688003F7D4D5
:100810002078DFF89C8280074FF0000A3ED5A3487D
:10082000001D016811F00C0F08D00068C0F38100B2
:1008300002280BD1D9F80000400207D428688007AD
:1008400016D5E068012800D112E02BE1E068B8B1CC
:100850000120C8F80000FFF727FE064605E000BFAC
:10086000FFF722FE801B0228C0D828688007F7D532
:100870002868216920F0F80040EAC10028600DE0F6
:10088000C8F800A0FFF710FE064604E0FFF70CFED4
:10089000801B02281FD828688007F7D4207800071B
:1008A00022D5824E83486169703671B101210160A1
:1008B000FFF7FAFD074604E0FFF7F6FDC01B02282C
:1008C00009D830688007F7D50EE0C0F800A0FFF720
:1008D000EBFD074605E082E0FFF7E6FDC01B0228BE
:1008E0007DD830688007F7D42078400768D5DFF8D6
:1008F000BCB100270BF13C0BDBF80000C0000BD4AF
:10090000DBF8001041F08051CBF80010DBF800005C
:10091000012700F080500090674E3068C00510D469
:10092000306840F480703060FFF7BEFD009005E055
:10093000FFF7BAFD0099401A022850D83068C00568
:10094000F6D55A4EA0686C3601280FD005283068BD
:1009500010D020F001003060306820F004003060DA
:10096000A068B8B1FFF7A0FD00900FE0306840F03C
:100970000100F4E740F004003060F7E7FFF794FD72
:100980000099411A41F28830814266D83068800768
:10099000F4D50EE0FFF788FD009007E0FFF784FD37
:1009A0000099411A41F28830814256D83068800758
:1009B000F4D42FB1DBF8001021F08051CBF80010F7
:1009C000A069C8B33949091D0968C1F38101022929
:1009D0004AD00228504607D0C8F8600000E03CE04A
:1009E000FFF762FD04463BE04746C8F86000FFF7AA
:1009F0005BFD064605E000BFFFF756FD801B0228A1
:100A00002BD828688001F7D4D4E907010843A16AEC
:100A10002A4A490802EB0141626A41EA821108430D
:100A200094F82C1040EA0161C9F8001001203866E2
:100A3000FFF73AFD044606E036E000BFFFF734FD5D
:100A4000001B022809D828688001F7D52CE000BFD8
:100A5000FFF72AFD001B022802D90320BDE8F88F0A
:100A600028688001F4D41FE00128F7D0D9F80000ED
:100A7000E26900F48001914214D1226A00F03F0142
:100A800091420FD147F6C071626A0140914209D18B
:100A9000A26A00F44031914204D1E16A00F0706032
:100AA000884201D00120D9E70020D7E7043802406E
:100AB00000004742800E4742007000400000FFFFE8
:100AC00010B5401EB0F1807F01D3012010BD4FF062
:100AD000E02460610F21601700F0ADF80020A061F4
:100AE00007202061002010BDFEE7000010B50122A4
:100AF0004FF6FF710548FFF7D1FCBDE81040012219
:100B000040F2FF710248FFF7C9BC0000000C024030
:100B1000001002402DE9F04186B014216846FFF72D
:100B20008DFB1A480024016841F010010160016842
:100B300001F010010591016841F0080101600068B1
:100B4000134F00F008004FF6FF7505902246294626
:100B50003846FFF7A3FCDFF83C80002229464046D8
:100B6000FFF79CFC01260095CDE9016469463846F3
:100B70000394FFF7C9FB0095CDE90164694640463F
:100B80000394FFF7C1FB06B0BDE8F08130380240A6
:100B900000100240000C0240FEE7704770477047AB
:100BA000FFF788BC10B592B030216846FFF746FBCE
:100BB00014210CA8FFF742FB15480024016841F0FE
:100BC00080510160006800F0805011901148016868
:100BD00021F4404141F4004101600068069400F4B2
:100BE00040401190022000900120039010200490BA
:100BF0006846FFF7B7FD0F20CDE90C040E940F9463
:100C000000210CA81094FFF7E1FC12B010BD000009
:100C100040380240007000400548016841F470010E
:100C2000016003494FF000608039086070470000A0
:100C300088ED00E0FEE70907090E002804DB00F15B
:100C4000E02080F80014704700F00F0000F1E02071
:100C500080F8141D704702E008C8121F08C1002A5E
:100C6000FAD170477047002001E001C1121F002A2D
:100C7000FBD170472DE9F0414FF4FA742046FFF79D
:100C800031FB704D002201212846FFF707FC20466A
:100C9000FFF728FB002202212846FFF7FFFB204632
:100CA000FFF720FB002204212846FFF7F7FB204630
:100CB000FFF718FB002208212846FFF7EFFB20462C
:100CC000FFF710FB002210212846FFF7E7FB204624
:100CD000FFF708FB002220212846FFF7DFFB204614
:100CE000FFF700FB002240212846FFF7D7FB2046F4
:100CF000FFF7F8FA002280212846FFF7CFFB2046B5
:100D0000FFF7F0FAAE15002231462846FFF7C6FB82
:100D10002046FFF7E7FA6F15002239462846FFF70D
:100D2000BDFB2046FFF7DEFA4FF480680022414603
:100D30002846FFF7B3FB2046FFF7D4FA0022E91458
:100D40002846FFF7ABFB2046FFF7CCFA0022A91498
:100D50002846FFF7A3FB2046FFF7C4FA00227101E3
:100D60002846FFF79BFB2046FFF7BCFA0022B101A3
:100D70002846FFF793FB2046FFF7B4FA0022F10163
:100D80002846FFF78BFB2046FFF7ACFA2E4D0022DA
:100D900001212846FFF782FB2046FFF7A3FA002235
:100DA00002212846FFF77AFB2046FFF79BFA002234
:100DB00004212846FFF772FB2046FFF793FA002232
:100DC00008212846FFF76AFB2046FFF78BFA00222E
:100DD00010212846FFF762FB2046FFF783FA002226
:100DE00020212846FFF75AFB2046FFF77BFA002216
:100DF00040212846FFF752FB2046FFF773FA0022F6
:100E000080212846FFF74AFB2046FFF76BFA0022B5
:100E100031462846FFF742FB2046FFF763FA0022DF
:100E200039462846FFF73AFB2046FFF75BFA0022D7
:100E300041462846FFF732FB2046BDE8F041FFF768
:100E400051BA0000000C0240001002402DE9F041B0
:100E50004FF4FA742046FFF745FA704D012211460F
:100E60002846FFF71BFB2046FFF73CFA0122022130
:100E70002846FFF713FB2046FFF734FA012204212E
:100E80002846FFF70BFB2046FFF72CFA012208212A
:100E90002846FFF703FB2046FFF724FA0122102122
:100EA0002846FFF7FBFA2046FFF71CFA0122202113
:100EB0002846FFF7F3FA2046FFF714FA01224021F3
:100EC0002846FFF7EBFA2046FFF70CFA01228021B3
:100ED0002846FFF7E3FA2046FFF704FA012216023C
:100EE00031462846FFF7DAFA2046FFF7FBF90122E0
:100EF000570239462846FFF7D1FA2046FFF7F2F9A4
:100F00004FF48068012241462846FFF7C7FA204681
:100F1000FFF7E8F90122D1022846FFF7BFFA204681
:100F2000FFF7E0F9012211032846FFF7B7FA204640
:100F3000FFF7D8F9012251032846FFF7AFFA204600
:100F4000FFF7D0F9012291032846FFF7A7FA2046C0
:100F5000FFF7C8F90122D1032846FFF79FFA204680
:100F6000FFF7C0F92E4D012211462846FFF796FAE9
:100F70002046FFF7B7F9012202212846FFF78EFA33
:100F80002046FFF7AFF9012204212846FFF786FA31
:100F90002046FFF7A7F9012208212846FFF77EFA2D
:100FA0002046FFF79FF9012210212846FFF776FA25
:100FB0002046FFF797F9012220212846FFF76EFA15
:100FC0002046FFF78FF9012240212846FFF766FAF5
:100FD0002046FFF787F9012280212846FFF75EFAB5
:100FE0002046FFF77FF9012231462846FFF756FADF
:100FF0002046FFF777F9012239462846FFF74EFAD7
:101000002046FFF76FF9012241462846FFF746FACE
:101010002046BDE8F041FFF765B90000000C024032
:1010200000100240FFF74EFAFFF7BCFDFFF772FD1C
:101030004FF47A74FFF75AFD2046FFF753F9FFF794
:101040003BF92046FFF74EF9FFF700FF2046FFF778
:1010500049F9FFF70FFEEDE7000000000000000077
:101060000102030406070809881000080000002098
:1010700010000000560C0008981000081000002016
:1010800000040000660C00080100000010000000D1
:08109000000000000024F40040
:040000050800019559
:00000001FF
