:100000000C945D000C9485000C9485000C94850084
:100010000C9485000C9485000C9485000C9485004C
:100020000C9485000C9485000C9485000C9485003C
:100030000C9485000C9485000C9485000C9485002C
:100040000C9411020C9485000C94DF010C94B901FE
:100050000C9485000C9485000C9485000C9485000C
:100060000C9485000C9485000000000024002700FB
:100070002A0000000000250028002B0004040404CE
:100080000404040402020202020203030303030342
:10009000010204081020408001020408102001021F
:1000A00004081020000000080002010000030407FB
:1000B0000000000000000000100411241FBECFEF5C
:1000C000D8E0DEBFCDBF11E0A0E0B1E0E8E3F9E0A9
:1000D00002C005900D92A231B107D9F721E0A2E14B
:1000E000B1E001C01D92AA3BB207E1F710E0CDE5F7
:1000F000D0E004C02197FE010E949404CC35D107C2
:10010000C9F70E945B020C949A040C940000AF9211
:10011000BF92CF92DF92EF92FF920F931F93CF93F4
:10012000DF936C017B018B01040F151FEB015E0156
:10013000AE18BF08C017D10759F06991D601ED91EB
:10014000FC910190F081E02DC6010995892B79F78A
:10015000C501DF91CF911F910F91FF90EF90DF903C
:10016000CF90BF90AF900895FC01538D448D252F03
:1001700030E0842F90E0821B930B541710F0CF9641
:10018000089501970895FC01918D828D981761F073
:10019000A28DAE0FBF2FB11D5D968C91928D9F5F8A
:1001A0009F73928F90E008958FEF9FEF0895FC0169
:1001B000918D828D981731F0828DE80FF11D858D1C
:1001C00090E008958FEF9FEF0895FC01918D228DAF
:1001D000892F90E0805C9F4F821B91098F73992734
:1001E00008958BE191E00E94E50021E0892B09F45C
:1001F00020E0822F089580E090E0892B29F00E9472
:10020000F10081110C9400000895FC01A48DA80F49
:10021000B92FB11DA35ABF4F2C91848D90E0019648
:100220008F739927848FA689B7892C93A089B18968
:100230008C91837080648C93938D848D981306C009
:100240000288F389E02D80818F7D80830895EF926D
:10025000FF920F931F93CF93DF93EC0181E0888F80
:100260009B8D8C8D98131AC0E889F989808185FF50
:1002700015C09FB7F894EE89FF896083E889F989F2
:1002800080818370806480839FBF81E090E0DF91F4
:10029000CF911F910F91FF90EF900895F62E0B8D47
:1002A00010E00F5F1F4F0F731127E02E8C8D8E1102
:1002B0000CC00FB607FCFACFE889F989808185FF69
:1002C000F5CFCE010E940501F1CFEB8DEC0FFD2F94
:1002D000F11DE35AFF4FF0829FB7F8940B8FEA8924
:1002E000FB8980818062CFCFCF93DF93EC01888D33
:1002F0008823B9F0AA89BB89E889F9898C9185FDA1
:1003000003C0808186FD0DC00FB607FCF7CF8C912E
:1003100085FFF2CF808185FFEDCFCE010E940501E0
:10032000E9CFDF91CF9108953FB7F89480911701FD
:1003300090911801A0911901B0911A0126B5A89BBE
:1003400005C02F3F19F00196A11DB11D3FBFBA2F67
:10035000A92F982F8827BC01CD01620F711D811D27
:10036000911D42E0660F771F881F991F4A95D1F7AC
:1003700008951F920F920FB60F9211242F933F935F
:100380004F935F936F937F938F939F93AF93BF939D
:10039000EF93FF938BE191E00E940501FF91EF91B4
:1003A000BF91AF919F918F917F916F915F914F918D
:1003B0003F912F910F900FBE0F901F9018951F9295
:1003C0000F920FB60F9211242F938F939F93EF9359
:1003D000FF93E0912B01F0912C018081E09131019C
:1003E000F091320182FD1BC09081809134018F5FBA
:1003F0008F7320913501821741F0E0913401F0E0D4
:10040000E55EFE4F958F80933401FF91EF919F91B0
:100410008F912F910F900FBE0F901F901895808194
:10042000F4CF1F920F920FB60F9211242F933F9388
:100430008F939F93AF93BF93809113019091140179
:10044000A0911501B09116013091120123E0230F04
:100450002D3758F50196A11DB11D209312018093EF
:10046000130190931401A0931501B093160180918C
:10047000170190911801A0911901B0911A010196EC
:10048000A11DB11D8093170190931801A09319012C
:10049000B0931A01BF91AF919F918F913F912F918E
:1004A0000F900FBE0F901F90189526E8230F02960D
:1004B000A11DB11DD2CFCF93DF93CDB7DEB7A197EA
:1004C0000FB6F894DEBF0FBECDBF789484B58260BE
:1004D00084BD84B5816084BD85B5826085BD85B5E8
:1004E000816085BD80916E00816080936E00109266
:1004F00081008091810082608093810080918100E1
:100500008160809381008091800081608093800071
:100510008091B10084608093B1008091B0008160CF
:100520008093B00080917A00846080937A008091FB
:100530007A00826080937A0080917A008160809353
:100540007A0080917A00806880937A001092C100CE
:10055000E0912B01F0912C0182E08083E091270152
:10056000F09128011082E0912901F0912A0181E0A7
:10057000808310923301E0912F01F091300186E0E9
:100580008083E0912D01F0912E0180818061808334
:10059000E0912D01F0912E01808188608083E091AF
:1005A0002D01F0912E01808180688083E0912D01E2
:1005B000F0912E0180818F7D8083EEE9F0E024911F
:1005C000EAE8F0E084918823C9F090E0880F991F51
:1005D000FC01E859FF4F45915491FC01EE58FF4F43
:1005E000A591B4919FB7F894FA0180812095822358
:1005F00080838C91E22FE823EC939FBF49E9242E5E
:1006000040E0342EF1012491E5E8F0E08491882364
:1006100099F090E0880F991FFC01E859FF4FA591D0
:10062000B491FC01EE58FF4F859194918FB7F894E7
:100630009C91292B2C938FBF2AE0822E912CA12CE8
:10064000B12CF0E4F0937C0080917A008064809378
:100650007A0080917A0086FDFCCF9091780080919D
:1006600079008927982789279093B9018093B80149
:100670006C01092E000CEE08FF0897FF97C06DE291
:100680008BE191E00E94270122273327A9012C1931
:100690003D094E095F0919A28E010F5D1F4FCA0166
:1006A000B901A50194010E945C04605DF8016293A8
:1006B0008F01211531054105510589F701151105F6
:1006C00061F001900020E9F73197AF01401B510B19
:1006D000B8018BE191E00E948700EDEAF0E084919F
:1006E000F101F490E5E8F0E09491992369F1A0918B
:1006F000B801B091B901882359F0833009F477C06B
:1007000008F06AC0813009F478C0823009F479C0F9
:10071000E92FF0E0EE0FFF1FEE58FF4F0591149107
:10072000EFB6F8942FEF30E00E948D042FEF33E006
:1007300040E050E00E943D04F801808121116EC02C
:10074000F094F822F082EFBE0E9494016B017C01CC
:1007500088EE482E83E0582E612C712C0E94940163
:100760006C197D098E099F09683E734081059105CA
:10077000A8F3F1E04F1A51086108710828EEC20E83
:1007800023E0D21EE11CF11C4114510461047104E8
:1007900029F780E090E0892B09F453CF0E94F10003
:1007A000882309F44ECF0E9400004BCFA701960189
:1007B00019A28E010F5D1F4FCA01B901A501940155
:1007C0000E945C04605DF80162938F012115310580
:1007D0004105510589F772CF8730B1F08830D1F0EB
:1007E000843009F095CF809180008F7D03C0809187
:1007F00080008F77809380008BCF84B58F7784BD06
:1008000087CF84B58F7DFBCF8091B0008F778093A9
:10081000B0007ECF8091B0008F7DF9CFF82A92CFC3
:10082000EBE1F1E01382128288EE93E0A0E0B0E009
:1008300084839583A683B78384E091E0918380834A
:1008400085EC90E09587848784EC90E09787868795
:1008500080EC90E0918B808B81EC90E0938B828B8D
:1008600082EC90E0958B848B86EC90E0978B868B66
:10087000118E128E138E148E0895052E97FB1EF482
:1008800000940E94540457FD07D00E945C0407FCAA
:1008900003D04EF40C945404509540953095219516
:1008A0003F4F4F4F5F4F089590958095709561959C
:1008B0007F4F8F4F9F4F0895A1E21A2EAA1BBB1B9B
:1008C000FD010DC0AA1FBB1FEE1FFF1FA217B3071C
:1008D000E407F50720F0A21BB30BE40BF50B661F32
:1008E000771F881F991F1A9469F7609570958095F6
:1008F00090959B01AC01BD01CF010895A29FB0016D
:10090000B39FC001A39F700D811D1124911DB29F43
:10091000700D811D1124911D08950E947E04B7FF62
:100920000895821B930B0895EE0FFF1F0590F4911D
:08093000E02D0994F894FFCFBB
:100938000000000027018700B4007401E500C3002F
:02094800D700D6
:00000001FF
